:100000000C9408090C9430090C9430090C943009B4
:100010000C9430090C9430090C9430090C9430097C
:100020000C9430090C9430090C9430090C9430096C
:100030000C9430090C9430090C9430090C9430095C
:100040000C94B7190C9430090C94271A0C94011ACB
:100050000C9430090C9430090C9430090C9430093C
:100060000C94591A0C94300900000000050001009E
:1000700000030D0602F4050007050901F40A000A51
:100080000C0A00F51900090F0A01F32A00100D10DF
:1000900000F444000C0D0D01F4580003050501F4B3
:1000A0005A0006110601F4670006110600F47400F8
:1000B00005060701F4780007080B02F97F00030525
:1000C0000401FF810005020600FB83000302040116
:1000D000FF8400050D0500F48D00090D0A01F49C54
:1000E00000050D0A02F4A500090D0A01F4B4000888
:1000F0000D0A01F4C100080D0A02F4CE00090D0A30
:1001000001F4DD00090D0A01F4EC00090D0A00F408
:10011000FB000A0D0A00F40C01090D0A01F41B0191
:1001200003090401F81F01030C0401F82401090963
:100130000B01F82F0109060B01FA360109090B0121
:10014000F84101090D0B01F45001100F1200F46E7B
:10015000010C0D0D00F482010B0D0D01F494010C46
:100160000D0D01F4A8010C0D0D01F4BC01090D0CDD
:1001700001F4CB01090D0B01F4DA010B0D0E01F4B2
:10018000EC010B0D0D01F4FE01030D0601F4030259
:10019000080D0A01F410020C0D0D01F42402080DE3
:1001A0000B01F431020E0D1001F448020B0D0E018B
:1001B000F45A020D0D0E01F470020B0D0C01F482C5
:1001C000020D0E0E01F499020C0D0D01F4AD020B9F
:1001D0000D0C01F4BF02090D0C02F4CE020B0D0D43
:1001E00001F4E0020C0D0C00F4F402110D1100F406
:1001F00010030C0D0C00F424030B0D0C01F436035A
:10020000090D0B01F4450304110601F44E03050D1D
:100210000500F4570304110600F4600308080B01FD
:10022000F468030A010A00046A0303020500F46B80
:10023000030A0A0A01F778030A0D0B01F48903097E
:100240000A0A01F79503090D0B01F4A403090A0A30
:1002500001F7B003050D0601F4B903090E0B01F710
:10026000C903090D0B01F4D803030D0501F4DD03E7
:1002700004110500F4E603090D0A01F4F503030D6A
:100280000501F4FA030E0A1001F70C04090A0B0128
:10029000F718040A0A0B01F725040A0E0B01F737B9
:1002A00004090E0B01F74704060A0701F74F04097A
:1002B0000A0A01F75B04050C0601F56304090A0B41
:1002C00001F76F040A0A0A00F77C040E0A0E00F711
:1002D0008E040A0A0A00F79B040A0E0A00F7AD040E
:1002E000080A0901F7B70404110701F4C004011159
:1002F0000502F4C30404110702F4CC040802090047
:10030000FCFFFFFE487EEFDFBF7440198667FDFFEC
:10031000330CC333FEFF99866190101F1FDEFF3F31
:1003200083C0FC1F09FCFEF7F1E04038107C30C6AA
:1003300020C640C6407C80399C013E0363026304B2
:10034000630C3E081C0E01F83B83B83F01E03E679A
:1003500076E3EE1CF3C7FE3F70FFF418631C738E48
:1003600038E38E1870C3060861830E3871C71C719C
:10037000C638E31840213E45283870E7FFE70E1CD9
:10038000FC9CFFC0FC08C4231084621188003E3F1F
:100390009DDC7E3F1F8FC7E3F1DDCFE3E008FFF375
:1003A0009CE739CE73803E3FB8FC70381C1C1C1C87
:1003B0001C1C0FF7F83C7FE7E7070C0E0707E7E781
:1003C0007E3C0E1E1E2E2E4E4E8EFFFF0E0E0E7FFC
:1003D0003F90180DE7FB9E070381F1FFE7C03E3F0A
:1003E0009CFC0EE7FBDFC7E3F1DDEFE3E0FFFFC0BE
:1003F000E0E0607030381C0C0E0703803F1FEE3FBA
:1004000087E3CFC7FBCFE1F87F3DFE3F003E3FBD16
:10041000DC7E3F1FDEFF3B81F9CFE3C0FC0007E03D
:10042000FC0007E5E00083C7DF0C0780F81F0180B0
:10043000FFFFC0000FFFFC00703F03E0387DF1E0DC
:1004400080003E3FB8FC70381C1C1C1C0E00038151
:10045000C003F00FFC1E0E380270E96319C219C602
:1004600011C633C63263FE73DC3C001FF807F00789
:1004700000F00F80F81D819C19C38C3FE7FE706669
:1004800007E070FF9FFB83F07E0FFF3FF706E0FC65
:100490001F83FFEFF81F83FE78E707E00E00E00EF2
:1004A00000E0070778F3FE1F80FF8FFCE0EE0EE010
:1004B0007E07E07E07E07E0EE0EFFCFF80FFFFF8A6
:1004C0001C0E07FBFDC0E070381FFFF8FFFFF81C93
:1004D0000E07FBFDC0E070381C0E000F87F9E3B873
:1004E0003E01C038FF1FE06E0DE39FD0F2E0FC1F1D
:1004F00083F07E0FFFFFFF07E0FC1F83F07E0EFFFF
:10050000FFFFFFFE0707070707070707E7E7E77E85
:100510003CE0EE1CE38E70EE0FC0FE0F70E70E386D
:10052000E1CE0EE0E0E0E0E0E0E0E0E0E0E0E0E0AE
:10053000FFFFF87FE1FF87FE1FEC7FB37ECDFB3727
:10054000ECDF9E7E79F9E7E79CE0FE1FC3FC7FCFDE
:10055000D9FBBF37E7FC7F87F0FE0E0F81FF1E3C03
:10056000E0EE03F01F80FC07E03B839E3C7FC0F879
:1005700000FF9FFB87F07E0FC3FFF7FCE01C0380AA
:10058000700E000F81FF1E3CE0EE03F01F80FC07A1
:10059000E1BB8F9E3C7FE0FB8008FF8FFCE0EE0E0E
:1005A000E0EE0EFFCFFCE0EE0EE0EE0EE0F03F0FCF
:1005B000FBC7F07E01FC1FF03F00FC1DC7BFE1F848
:1005C000FFFFC70381C0E070381C0E070381C0E045
:1005D000FC1F83F07E0FC1F83F07E0FC1FC7BFE19F
:1005E000F060670E70E30C30C39C1981981F80F097
:1005F0000F00F0060061C3B8E19C70CE3CE3367199
:100600009B30ED98367C1B3C0F1E078F01C380E1A9
:100610008070E78E39C1F81F80F00700F01F819CC1
:1006200039C70E70E0E0FC39C718C3B83607C07090
:100630000E01C0380700E0FFFFC0E0E0F07070700E
:100640007838381FFFF8FFEEEEEEEEEEEEEFF086B4
:100650001086108430843080FF7777777777777FC4
:10066000F0181C3C3E366663C3FFC0CC3F1FEE381B
:100670000E3F9EEE3B9EFF9EE0E0380E03BCFFBCAB
:10068000EE1F87E1F87F3BFEEF001F3FDC7C0E078B
:100690000380E37F8F000381C0E777FBBF8FC7E351
:1006A000F1FDEFF3B83E3F9CDC3FFFFF81C37F8F3E
:1006B000003BDDFFB9CE739CE7003BBFDDFC7E3F16
:1006C0001F8FEF7F9DC0FC77F1F0E070381DEFFFCA
:1006D0009F8FC7E3F1F8FC7E38FC7FFFFFFE7707B2
:1006E00077777777777FE0E070381C7E7773F1F863
:1006F000FE7739DC6E38FFFFFFFFFEEF7BFFFE3930
:10070000F8E7E39F8E7E39F8E7E39F8E70EF7FF87E
:10071000FC7E3F1F8FC7E3F1C01E1FE73B87E1F858
:100720007E1DCE7F8780EF3FEF3B87E1F87E1FCEB7
:10073000FFBBCE0380E038003BBFFDFC7E3F1F8F38
:10074000EF7F9DC0E070381CEFFF38E38E38E38008
:100750003E3FB8FC0FC3FC3FC7FF1F0073BFF73914
:10076000CE739E70E3F1F8FC7E3F1F8FC7FFBDC0C4
:10077000E1986739CC330DC3E0781E0700E31D9E76
:10078000667999E677B8D2C3CF0F3C3CF07380739B
:100790009CE3F0781E0781E0FC739CE0E1D86739A8
:1007A000CE330EC3E0781E0300C070380E00FEFE8C
:1007B0000E1C383870E0FFFF3766666EE6666667C7
:1007C00030FFFF80CE6666677666666EC0718E000B
:1007D000000000003E5B4F5B3E3E6B4F6B3E1C3E9D
:1007E0007C3E1C183C7E3C181C577D571C1C5E7FB1
:1007F0005E1C00183C1800FFE7C3E7FF0018241830
:1008000000FFE7DBE7FF30483A060E262979292664
:10081000407F050507407F05253F5A3CE73C5A7F4E
:100820003E1C1C08081C1C3E7F14227F22145F5FA4
:10083000005F5F06097F017F006689956A606060DE
:10084000606094A2FFA29408047E040810207E2019
:100850001008082A1C08081C2A08081E101010106E
:100860000C1E0C1E0C30383E3830060E3E0E0600B4
:100870000000000000005F00000007000700147F78
:10088000147F14242A7F2A122313086462364956DF
:1008900020500008070300001C2241000041221CD8
:1008A000002A1C7F1C2A08083E08080080703000BF
:1008B0000808080808000060600020100804023ED4
:1008C0005149453E00427F40007249494946214115
:1008D000494D331814127F1027454545393C4A4984
:1008E00049314121110907364949493646494929C3
:1008F0001E000014000000403400000008142241D3
:100900001414141414004122140802015909063E5B
:10091000415D594E7C1211127C7F494949363E4156
:100920004141227F4141413E7F494949417F090977
:1009300009013E414151737F0808087F00417F4112
:10094000002040413F017F081422417F4040404049
:100950007F021C027F7F0408107F3E4141413E7FA1
:10096000090909063E4151215E7F09192946264998
:1009700049493203017F01033F4040403F1F20406F
:10098000201F3F4038403F63140814630304780479
:10099000036159494D43007F414141020408102041
:1009A000004141417F0402010204404040404000B8
:1009B0000307080020545478407F284444383844C2
:1009C000444428384444287F385454541800087E3E
:1009D000090218A4A49C787F0804047800447D4090
:1009E000002040403D007F1028440000417F40002F
:1009F0007C047804787C080404783844444438FC47
:100A00001824241818242418FC7C080404084854CA
:100A100054542404043F44243C4040207C1C204087
:100A2000201C3C4030403C44281028444C9090907E
:100A30007C4464544C4400083641000000770000B8
:100A4000004136080002010204023C2623263C1E17
:100A5000A1A161123A4040207A3854545559215589
:100A600055794122545478422155547840205455A8
:100A700079400C1E527212395555555939545454F7
:100A80005939555454580000457C410002457D4277
:100A90000001457C407D1211127DF0282528F07C54
:100AA000545545002054547C547C0A097F493249EE
:100AB0004949323A4444443A324A4848303A41413A
:100AC000217A3A42402078009DA0A07D3D424242DA
:100AD0003D3D4040403D3C24FF2424487E49436640
:100AE0002B2FFC2F2BFF0929F620C0887E0903201D
:100AF000545479410000447D413048484A323840DE
:100B000040227A007A0A0A727D0D19317D26292940
:100B10002F28262929292630484D40203808080842
:100B20000808080808382F10C8ACBA2F102834FA63
:100B300000007B000008142A142222142A140855ED
:100B400000550055AA55AA55AAFF55FF55FF0000AC
:100B500000FF00101010FF00141414FF001010FF0D
:100B600000FF1010F010F0141414FC001414F7001F
:100B7000FF0000FF00FF1414F404FC141417101FEE
:100B800010101F101F1414141F00101010F000007C
:100B900000001F101010101F10101010F010000097
:100BA00000FF101010101010101010FF10000000A7
:100BB000FF140000FF00FF00001F10170000FC04DE
:100BC000F414141710171414F404F40000FF00F7C1
:100BD00014141414141414F700F714141417141024
:100BE000101F101F141414F4141010F010F0000053
:100BF0001F101F0000001F14000000FC140000F074
:100C000010F01010FF10FF141414FF141010101F18
:100C100000000000F010FFFFFFFFFFF0F0F0F0F029
:100C2000FFFFFF0000000000FFFF0F0F0F0F0F3846
:100C300044443844FC4A4A4A347E02020606027E94
:100C4000027E0263554941633844443C04407E209F
:100C50001E2006027E020299A5E7A5991C2A492AB0
:100C60001C4C7201724C304A4D4D3030487848303F
:100C7000BC625A463D3E494949007E0101017E2A37
:100C80002A2A2A2A44445F444440514A444040446A
:100C90004A51400000FF0103E080FF000008086B9C
:100CA0006B083612362436060F090F060000181896
:100CB0000000001010003040FF0101001F01011E64
:100CC00000191D1712003C3C3C3C000000000000D5
:100CD0000103070F1F3F7F0080C0E0F0F8FCFEDB40
:100CE00040A4A62EAF2000A1C8D300408DAED58071
:100CF000A8000060000000000000000000000000EC
:100D00000000E00000000000000000000000000003
:100D100001E00000000000000000000000000001F1
:100D2000F00000000000000000000000000003F0E0
:100D30000000000000000000000000000007F000BC
:100D400000000000000000000000000007F80000A4
:100D500000000000000000000000000FF80000008C
:100D600003C0007E000001E0007F0FF800000003D8
:100D7000C000FE000001E000FFEFF800000003C02B
:100D800000FE000001E000FFFFF800000003C000CB
:100D9000F00000000F007FFE7FC0000003C000F0E5
:100DA0000000000F003FFE7FF83FF1FBCFFCFEF399
:100DB000BC3DEFE01FFE7FFF7FFBFFDFFEFEFFBCC1
:100DC0003DEFE01FC6FFFF7FFBFFDFFEFEFFBC3DE8
:100DD000EFE00FE3C7FE787BC3DE1EF0FFBC3DEF04
:100DE0000007FF87FC787BC3DE1EF0F83C3DEF0078
:100DF00001FFFFF0007BC3C01EF0F03C3DEF00019F
:100E0000F37FE03FFBC3CFFEF0F03C3DEF0003E398
:100E10003F807FFBC3DFFEF0F03C3DEF0007E73C87
:100E200000787BC3DE1EF0F03C3DEF0007FFBE0004
:100E3000787BC3DE1EF0F03C3DEF0007FFFE00783C
:100E40007BC3DE1EF0F03C3DEF000FFFFE007FFB9A
:100E5000FFDFFEF0F03FFDEFE00FFFFF007FFBFF45
:100E6000DFFEF0F03FFDEFE00FF9FF003E79F9CF34
:100E70009EF0F01F3DE7E01FF1FF000000000000C2
:100E80000000000000001F80FF007FFFFFFFFFFF4A
:100E9000FFFFFFFFE01C007F007FFFFFFFFEB46D40
:100EA000888D18E000001F007FFFFFFFFE95AD7DDD
:100EB000B577E000000F007FFFFFFFFEA5AD9D8D21
:100EC00019E0000006007FFFFFFFFEB5ADEDB57E27
:100ED000E0000000000001800000000000000000B1
:100EE00000038000000000000000000007C00000B8
:100EF0000000000000000007C0000000000000002B
:100F000000000FC00000000000000000001FE00013
:100F100000000000000000001FE0000000000000D2
:100F20000000003FE00000000000000000003FF073
:100F30000000000000000000007FF0000000000042
:100F400000001FF87FF0000000000000003FFE7F5F
:100F5000F0000000000000003FFF7FF000000000F4
:100F60000000001FFFFBE0000000000000000FFF7A
:100F7000F9FFC00000000000000FFFF9FFF80000BB
:100F80000000000007FFF1FFFF0000000000000369
:100F9000FC73FFFF80000000000001FE3FFFFF80A8
:100FA000000000000000FF1E0FFF00000000000016
:100FB000007FFE1FFC000000000000003FFFFFF864
:100FC000000000000000000FDFFFE0000000000054
:100FD00000001F19FFC0000000000000003F3CFFA0
:100FE00000000000000000007E7CF800000000000F
:100FF0000000007FFE7C0000000000000000FFFFFA
:10100000FC0000000000000000FFFFFE00000000E8
:1010100000000000FFFFFE0000000000000001FFD4
:10102000EFFE0000000000000001FFCFFE00000006
:101030000000000003FF07FE0000000000000003A6
:10104000FC07FE0000000000000003F003FE0000AB
:101050000000000000018000FE0000000000000011
:101060000000007E000000000000000000003E00C4
:101070000000000000000000000C00000000000064
:10108000078000FC000003C0000000078001FC0096
:101090000003C0000000078001FC000003C0000046
:1010A00000078001E00000001E000000078001E052
:1010B0000000001E007FE3F79FF9FDE7787BDFC0AB
:1010C000FFF7FFBFFDFDFF787BDFC0FFF7FFBFFD30
:1010D000FDFF787BDFC0F0F787BC3DE1FF787BDE6A
:1010E00000F0F787BC3DE1F0787BDE0000F78780F9
:1010F0003DE1E0787BDE007FF7879FFDE1E0787BD4
:10110000DE00FFF787BFFDE1E0787BDE00F0F787C8
:10111000BC3DE1E0787BDE00F0F787BC3DE1E078A4
:101120007BDE00F0F787BC3DE1E0787BDE00FFF777
:10113000FFBFFDE1E07FFBDFC0FFF7FFBFFDE1E0A8
:101140007FFBDFC07CF3F39F3DE1E03E7BCFC0003F
:1011500000000000000000000000FFFFFFFFFFFF95
:10116000FFFFFFFFC0FFFFFFFFFD68DB111A31C06B
:10117000FFFFFFFFFD2B5AFB6AEFC0FFFFFFFFFDE4
:101180004B5B3B1A33C0FFFFFFFFFD6B5BDB6AFD70
:10119000C00103680020007E00166661696C65640A
:1011A00020746F2073746172742053534431333050
:1011B00036204F4C454400000000080002010000AA
:1011C00003040700000000000000000000000025EC
:1011D0000028002B0000000000240027002A000443
:1011E00004040404040404020202020202030303CE
:1011F00003030301020408102040800102040810C8
:10120000200102040810202200FF2100781B6F1F1C
:1012100011241FBECFEFD8E0DEBFCDBF11E0A0E0AC
:10122000B1E0E8ECF1E402C005900D92AA36B107F6
:10123000D9F723E0AAE6B1E001C01D92A332B207BC
:10124000E1F719E0C7E0D9E004C02197FE010E9450
:10125000A01FC630D107C9F70E94FB1B0C94D720F2
:101260000C9400002F923F924F925F926F927F9268
:101270008F929F92AF92BF92CF92DF92EF92FF92A6
:101280000F931F93CF93DF93CDB7DEB765970FB65C
:10129000F894DEBF0FBECDBF109231021092300223
:1012A00010922F0210922E0210922B0210922A02FC
:1012B00010922D0210922C022090F8023090F90228
:1012C0002091F6022C83F090F3022F2D30E0388B22
:1012D0002F8746E0F49E900111243E832D83A09039
:1012E000E702B090E802E090F402E8E0EE9E6001D0
:1012F000112491012C5F3F4F3A8729872E5F3F4F82
:101300003C872B87245031093A8B298B2A5F3F4F2A
:101310003B832A8398878F8344244A94542CAFEFCD
:10132000BFEF8FEF9FE79C8B8B8B0FEF1FE770E07A
:1013300060E050E040E0EF81F8858191F887EF832D
:10134000882309F4C0C02114310409F487C08A300D
:1013500041F4EA81FB8184918E9D600D711D112401
:10136000E8CF8D3041F3E985FA859491EB85FC85D2
:101370002491891700F32817F0F2E989FA89259159
:101380003491891BF7E08F9F200D311D1124F90145
:10139000329684918983319694919D873196849178
:1013A0008E87319684912A5F3F4FF901F491FD8B2E
:1013B0002C812223F1F03981632E712C680E711C6F
:1013C00087FD7A942F853889629E4001639E900C38
:1013D000729E900C1124840E951EA814B9044CF42E
:1013E000EA81FB8194919E9D600D711D112450E056
:1013F00040E02F2D382F3203C0011124840F951F98
:101400002E2D3D893203F00111249F01260F371F35
:10141000801791070CF48C01EB89FC892E173F078C
:1014200014F43C8B2B8BF981FF9D800D911D1124B1
:101430000197A817B9070CF4DC018D858E9D200D4E
:10144000311D112421503109421653060CF4290193
:101450009E859F9D400D511D11246DCF8A3019F43A
:101460006C0D7D1D66CF8D3009F465CF2C81222354
:1014700059F08D819E81840F951FA816B90624F41A
:101480006C0D7D1D50E040E02D813E81240F351F05
:10149000C9010197A817B9070CF4DC01C601860F32
:1014A000971F0197481659060CF42C014017510755
:1014B0000CF48A018B899C896817790714F47C8B5A
:1014C0006B8BA90138CFA017B1075CF010933102E4
:1014D00000933002A01BB10B1196B0932D02A09384
:1014E0002C022B893C89421653066CF030932F0254
:1014F00020932E02421A530A3FEF431A530A509286
:101500002B0240922A0265960FB6F894DEBF0FBEFA
:10151000CDBFDF91CF911F910F91FF90EF90DF90A2
:10152000CF90BF90AF909F908F907F906F905F9083
:101530004F903F902F90089590E0FC01ED50FE4EAB
:10154000249181529E4EFC018491882399F090E071
:10155000880F991FFC01EB52FE4EA591B491FC013E
:10156000E553FE4E859194918FB7F894EC91E22B60
:10157000EC938FBF0895089590E0FC01E954FE4E6E
:101580002491FC01ED50FE4E3491FC01E152FE4EDF
:10159000E491EE23C9F0222339F0233001F1A8F4BD
:1015A000213019F1223029F1F0E0EE0FFF1FE55351
:1015B000FE4EA591B4918FB7F894EC91611126C0BD
:1015C00030953E233C938FBF08952730A9F02830F3
:1015D000C9F0243049F7809180008F7D03C080914D
:1015E00080008F7780938000DFCF84B58F7784BDB4
:1015F000DBCF84B58F7DFBCF8091B0008F77809358
:10160000B000D2CF8091B0008F7DF9CF3E2BDACFE2
:101610003FB7F8948091260290912702A09128026A
:10162000B091290226B5A89B05C02F3F19F001965D
:10163000A11DB11D3FBFBA2FA92F982F8827BC012C
:10164000CD01620F711D811D911D42E0660F771F54
:10165000881F991F4A95D1F708958F929F92AF9254
:10166000BF92CF92DF92EF92FF924B015C010E94FA
:10167000080B6B017C010E94080B6C197D098E0917
:101680009F09683E734081059105A8F321E0821A05
:101690009108A108B10888EEC80E83E0D81EE11CAD
:1016A000F11C81149104A104B10429F7FF90EF907B
:1016B000DF90CF90BF90AF909F908F900895089546
:1016C0000895AF92BF92CF92DF92EF92FF920F9365
:1016D0001F93CF93DF936C017B018B01040F151FC8
:1016E000EB015E01AE18BF08C017D10759F0699130
:1016F000D601ED91FC910190F081E02DC601099594
:10170000892B79F7C501DF91CF911F910F91FF9040
:10171000EF90DF90CF90BF90AF900895FC01538D74
:10172000448D252F30E0842F90E0821B930B5417BB
:1017300010F0CF96089501970895FC01918D828D48
:10174000981761F0A28DAE0FBF2FB11D5D968C91E1
:10175000928D9F5F9F73928F90E008958FEF9FEF20
:101760000895FC01918D828D981731F0828DE80FDC
:10177000F11D858D90E008958FEF9FEF0895FC0196
:10178000918D228D892F90E0805C9F4F821B910963
:101790008F739927089586E392E00E94BF0B21E0A2
:1017A000892B09F420E0822F089580E090E0892BB6
:1017B00029F00E94CB0B81110C9400000895FC01CC
:1017C000A48DA80FB92FB11DA35ABF4F2C91848DA2
:1017D00090E001968F739927848FA689B7892C93FF
:1017E000A089B1898C91837080648C93938D848D52
:1017F000981306C00288F389E02D80818F7D808355
:101800000895EF92FF920F931F93CF93DF93EC0114
:1018100081E0888F9B8D8C8D98131AC0E889F98997
:10182000808185FF15C09FB7F894EE89FF8960839A
:10183000E889F98980818370806480839FBF81E01B
:1018400090E0DF91CF911F910F91FF90EF9008955D
:10185000F62E0B8D10E00F5F1F4F0F731127E02E38
:101860008C8D8E110CC00FB607FCFACFE889F98970
:10187000808185FFF5CFCE010E94DF0BF1CFEB8D8C
:10188000EC0FFD2FF11DE35AFF4FF0829FB7F89444
:101890000B8FEA89FB8980818062CFCFCF93DF9362
:1018A000EC01888D8823B9F0AA89BB89E889F98978
:1018B0008C9185FD03C0808186FD0DC00FB607FCAD
:1018C000F7CF8C9185FFF2CF808185FFEDCFCE01E0
:1018D0000E94DF0BE9CFDF91CF910895EF92FF9245
:1018E0000F931F93CF93DF93EC01EC80FD806E1577
:1018F0007F050CF070C057FF04C0240F351F50E067
:1019000040E08E819F81FA01E20FF31F8E179F073F
:101910001CF49C01241B350B121613060CF05BC043
:10192000922F842F8695869586958E9DD0018F9DCA
:10193000B00D11246A0F7B1FAF8DB8A1A60FB71F82
:10194000477049F188E0841B482F682F70E0FB0145
:10195000E952F34FE491281708F063C0621B710944
:101960002FEF30E002C0359527956A95E2F7E22324
:101970000130110539F0B0F10230110561F58C919B
:10198000E82702C08C91E82BEC93941720F12C816E
:101990003D81A20FB31FE92FE41BE83078F002303D
:1019A000110521F58E2F9C9190959C932C813D8162
:1019B000A20FB31F88508830B0F7E770EE2359F0BC
:1019C000F0E0E153F34FE49101301105F9F010F12B
:1019D0000230110519F1DF91CF911F910F91FF9006
:1019E000EF900895E0958C91E823CECF81E001152A
:1019F000110509F480E081959E2F8C932C813D8107
:101A0000A20FB31F98509830C0F7D7CF8C91E82B16
:101A1000EC93E1CFE0958C91E823FACF8C91E82705
:101A2000F7CF0130110509F4ADCFE0F20230110516
:101A300009F4A5CFAE0DBF1DAECF0F931F93CF936B
:101A4000DF9377FF04C0260F371F70E060E0DC01F2
:101A50001496CD91DC91FB01E20FF31FCE17DF0747
:101A60001CF49E01261B370B121613064CF5FA01C7
:101A700057FD3796A3E0F595E795AA95E1F7EC9F1A
:101A8000D001ED9FB00DFC9FB00D11246A0F7B1F9C
:101A9000DC015F96ED91FC91E60FF71F477055272B
:101AA00081E090E001C0880F4A95EAF7482F0130A5
:101AB000110559F0A8F02E0F3F1F02301105E1F07B
:101AC000DF91CF911F910F9108952E0F3F1FE217C5
:101AD000F307B1F38191DF011197842B8C93F7CF3A
:101AE00080952E0F3F1FE217F30751F39191DF010D
:101AF000119798239C93F7CFE217F30709F381918D
:101B0000DF01119784278C93F7CF0F931F93FA016E
:101B1000DC0156964C9156974230E9F04330A1F1E2
:101B2000413061F514964D915C91DA01AE1BBF0B0B
:101B3000FD01E21BF30B77FD0BC0DC0116964D9106
:101B40005C916417750724F4AB01BF010E941D0D61
:101B50001F910F91089514964D915C91DA01A61B87
:101B6000B70BBD0161507109DC0116964D915C9176
:101B7000DA01AE1BBF0BFD01E21BF30B77FDE8CFD3
:101B8000AF010E946E0CE4CF16964D915C91DA0184
:101B9000A61BB70BBD0161507109CDCF0F931F93E9
:101BA000FA01DC0156964C9156974230A9F0433029
:101BB00091F1413019F514964D915C91DA01AE1B0B
:101BC000BF0BFD013197F7FD04C0AB01BF010E94BF
:101BD0006E0C1F910F91089514964D915C91DA014E
:101BE000A61BB70BBD01DC0116964D915C91DA0185
:101BF000AE1BBF0BFD013197621B730BF7FDE9CFE5
:101C0000DC0116964D915C91E417F50714F7AF01CE
:101C10000E941D0DDECF16964D915C91DA01A61B38
:101C2000B70BBD01621B730BCECFFC0177FD64C007
:101C300080859185681779070CF05EC057FD5CC000
:101C400082859385481759070CF056C086898230E3
:101C5000B1F0833029F1813041F484819581841B76
:101C6000950BAB01BC01615071092130310509F1BF
:101C700008F443C02230310509F463C0089584811B
:101C80009581DC01A61BB70BBD01615071098681EE
:101C90009781DC01A41BB50BAD0141505109E5CF83
:101CA00086819781861B970BBA01AC01415051097F
:101CB000DCCFCA0157FD0796A3E095958795AA95B5
:101CC000E1F7A481B5818A9F90018B9F300D9A9F87
:101CD000300D1124620F731F078CF0A1E02DE60F69
:101CE000F71F4770552721E030E001C0220F4A95C9
:101CF000EAF78081822B80830895CA0157FD0796F9
:101D000033E0959587953A95E1F7A481B5818A9F4F
:101D100090018B9F300D9A9F300D1124620F731F1D
:101D2000078CF0A1E02DE60FF71F4770552781E0E3
:101D300090E001C0880F4A95EAF780959081892349
:101D4000DACFCA0157FD079623E0959587952A9526
:101D5000E1F7A481B5818A9F90018B9F300D9A9FF6
:101D6000300D1124620F731F078CF0A1E02DE60FD8
:101D7000F71F4770552721E030E001C0220F4A9538
:101D8000EAF780818227B7CF08958EBD00000DB499
:101D900007FEFDCF8EB508958CBD9DBD08950895B5
:101DA000FC016370668B8481958126813781613067
:101DB00039F0633029F0918780873387228708952F
:101DC000318720879387828708952F923F924F9281
:101DD0005F926F927F928F929F92AF92BF92CF92BB
:101DE000DF92EF92FF920F931F93CF93DF93CDB7C4
:101DF000DEB76A970FB6F894DEBF0FBECDBF9A8FDD
:101E0000898F7A8369834A01D22E18870F8337011D
:101E1000BC2CDC0159962D913C915A972115310526
:101E200009F015C118968D919C911997681779073B
:101E30000CF0D7C11A968D919C91481759070CF058
:101E4000D0C14C2C512CB6E0CB9E600D711D1124DD
:101E50007C876B87161617060CF0C3C1EA2DF0E0DD
:101E6000FA87E98793E0EE0FFF1F9A95E1F7F88B69
:101E7000EF87CF01840F951F181619060CF0B1C11A
:101E8000A98DBA8D58968C91811104C0BFEABD15F9
:101E900008F4D394A98DBA8DED91FC911197028429
:101EA000F385E02DCD010995B5E0DB9EC00111243D
:101EB000E981FA81FC83EB83312C212C9C01215395
:101EC000384F388F2F8B4A2D50E05E8B4D8BEF892A
:101ED000F88DE20DF31D44919E828D82D12CC12C90
:101EE00069817A81620D731D7A8B698B842F90E0F2
:101EF0009C8B8B8BE98DFA8DA081B18140FF82C0D4
:101F0000F1E0BF126FC0AF126DC01C96ED91FC9155
:101F10002F813885A4014C0D5D1D69897A89898DD1
:101F20009A8D0995EB89FC89F595E7954E2F5FEF22
:101F3000C51AD50A6D817E818D899E89680F791FAA
:101F40007E836D8398E0C916D10481F6AFEF2A1A1B
:101F50003A0AEB81FC81E40DF51DFC83EB83F5E08F
:101F60002F16310409F0B3CF2F8138852615370598
:101F7000B9F0A98DBA8DED91FC91B1E0BB1257C0BB
:101F8000AB1255C069817A816B5F7F4F0088F18900
:101F9000E02D830128E030E0A401898D9A8D099518
:101FA000A98DBA8DED91FC9111970688F789E02DE6
:101FB000CD016A960FB6F894DEBF0FBECDBFDF919C
:101FC000CF911F910F91FF90EF90DF90CF90BF9036
:101FD000AF909F908F907F906F905F904F903F90C9
:101FE0002F9009941E96ED91FC91EF80F88409855D
:101FF0001A8592014D815E816B817C81898D9A8DDC
:10200000099590CF2F8138852615370509F48ACF99
:1020100031E0B31207C0A31205C01C96ED91FC91EC
:10202000930178CF1E96ED91FC917301E0CF6B8503
:102030007C85641975090684F785E02D73010F8589
:1020400018899201A401898D9A8D0995A9CFF9016A
:1020500034969491329745915491D91AB7E0DB9E0A
:10206000400D511D1124F901259134913C8B2B8B8E
:10207000FA0125903490FA01329674903196349199
:10208000398B329664903196449041E04C1518F0AB
:102090004A1508F07FC0662D062C000C770B7C8358
:1020A0006B83842D042C000C990B9E838D83A98D4A
:1020B000BA8DED91FC9111970284F385E02DCD014D
:1020C0000995512CD12CC12CEA2DF0E0FA87E98733
:1020D0002B2D30E03C872B87A401440D511D47FC7C
:1020E0005A95588F4F8B69817A81660D711D67FCF7
:1020F0007A957E876D877989C71608F051CF2C2D88
:1021000030E04D815E81420F531FA985BA854A9FF9
:10211000C0014B9F900D5A9F900D1124FC01E80DBA
:10212000F91DF88BEF87852D612C4F89588D420F53
:10213000531F5E8B4D8B671408F050C044244394AA
:10214000480E877041F4C1010196EB89FC89E20DCC
:10215000F31DD4901C01D7FE19C0A98DBA8DED9145
:10216000FC91662D70E0B1E0BB1219C0AB1217C034
:102170002D853E85620F731F0484F585E02D2F8128
:1021800038854D895E89898D9A8D0995DD0C63941A
:10219000842DD1CF1E821D821C821B8288CF4B8151
:1021A0005C81640F751FAB85BC856A9FC0016B9F06
:1021B000900D7A9F900D112469817A81680F791FA3
:1021C0000684F785E02DEF80F88409851A859D0146
:1021D0004F855889898D9A8D0995D8CF570CC3940E
:1021E0008ACF6A960FB6F894DEBF0FBECDBFDF91DF
:1021F000CF911F910F91FF90EF90DF90CF90BF9004
:10220000AF909F908F907F906F905F904F903F9096
:102210002F9008958F929F92AF92CF92EF92FF925C
:102220000F931F93CF93DF93EC01262F898D9A8D07
:10223000009709F051C06A30D1F41D861C868D8943
:1022400048E0849F900111248E859F85820F931F03
:102250009F878E8781E090E0DF91CF911F910F9152
:10226000FF90EF90CF90AF909F908F9008956D303A
:1022700089F3CC88AD888F898823C1F08C859D85B2
:1022800036E0C39E800D911D11244885598548175D
:10229000590764F44E855F851D861C8638E0A39E31
:1022A000C0011124840F951F9F878E87EA88FB88C1
:1022B000088919894E855F856C857D85CE010E94D0
:1022C000E50E2C898C859D8546E0249F800D911D0F
:1022D00011249D878C87BECF6A3069F41D861C86C9
:1022E000FC013896E4912D898E859F85E29F800DB3
:1022F000911D1124ADCF6D3009F4ACCFFC013496A3
:102300003491631708F4A6CF3296E491E61708F4E7
:10231000A1CFFC01329685909490462F431B342F19
:1023200047E0349F800C911C1124F40132963491C3
:102330003196E4913323A9F1EE2399F1CC88F4018D
:102340003596E491AD884F89442301F10E2E000C9F
:10235000FF0BE30FF11DCE9EA001CF9E500D112467
:102360006C857D85460F571F6885798564177507CD
:102370006CF44E855F851D861C86FC013896E491C1
:10238000AE9E400D511D11245F874E87EA88FB8861
:10239000088919894E855F856C857D85CE010E94EF
:1023A000E50EF4013496E4912C898C859D85E29F9D
:1023B000800D911D11248DCF6F927F928F929F92ED
:1023C000AF92BF92CF92DF92EF92FF920F931F9343
:1023D000CF93DF93EC016B015A0139014801E88189
:1023E000F9810284F385E02D0995E881F98102885D
:1023F000F389E02D87019301A501B601CE0109956E
:10240000A501480D591D41505109E881F981028803
:10241000F389E02D9301B601CE010995E881F98198
:102420000088F189E02D9401A501B601CE0109953E
:10243000C60CD71CB60161507109E881F98100888A
:10244000F189E02D9401A501CE010995E881F9817A
:102450000688F789E02DCE01DF91CF911F910F9172
:10246000FF90EF90DF90CF90BF90AF909F908F90B4
:102470007F906F9009946F927F928F929F92AF920C
:10248000BF92CF92DF92EF92FF920F931F93CF9361
:10249000DF935C01EB016A01490138018701DC012E
:1024A000ED91FC916217730719F5641675062CF00F
:1024B000962D872D3A01C92ED82E96012619370957
:1024C0002F5F3F4F048CF58DE02DA301BE01C501A8
:1024D0000995DF91CF911F910F91FF90EF90DF90C1
:1024E000CF90BF90AF909F908F907F906F90089506
:1024F0004615570591F42617370724F0892D4B010F
:10250000C22FD82F9E01281939092F5F3F4F068C03
:10251000F78DE02DA601B401DACF0284F385E02D1A
:102520000995D501ED91FC910488F589E02D830191
:102530009401A601BE01C5010995D501ED91FC915B
:102540000688F789E02DC501DF91CF911F910F918A
:10255000FF90EF90DF90CF90BF90AF909F908F90C3
:102560007F906F900994EF92FF920F931F93DC017D
:102570001A960D911C911B9718962D913C911997C5
:10258000ED91FC9100A0F1A1E02D7B0150E040E035
:1025900070E060E009951F910F91FF90EF90089512
:1025A0004F925F926F927F928F929F92AF92BF9263
:1025B000CF92DF92EF92FF920F931F93CF93DF930F
:1025C0006C012B015A0139014801DC01ED91FC91AC
:1025D0000284F385E02D0995E201640C751CD60197
:1025E000ED91FC91C615D7055CF40088F189E02DCA
:1025F00087019401A501BE01C60109952196EFCF7F
:102600000688F789E02DC601DF91CF911F910F91C8
:10261000FF90EF90DF90CF90BF90AF909F908F9002
:102620007F906F905F904F9009948F929F92AF929E
:10263000BF92CF92DF92EF92FF920F931F93CF93AF
:10264000DF93EC015B014A016901E881F9810284B1
:10265000F385E02D099595012C0D3D1D2150310983
:10266000E881F9810488F589E02D78018401A401CD
:10267000B501CE010995E881F9810688F789E02D39
:10268000CE01DF91CF911F910F91FF90EF90DF90DE
:10269000CF90BF90AF909F908F9009948F929F9210
:1026A000AF92BF92CF92DF92EF92FF920F931F9360
:1026B000CF93DF93EC015B014A0169017801E88166
:1026C000F9810284F385E02D0995C80CD91C860197
:1026D00001501109E881F9810488F589E02D9501FF
:1026E000A401B501CE010995E881F9810688F78931
:1026F000E02DCE01DF91CF911F910F91FF90EF90D0
:10270000DF90CF90BF90AF909F908F900994EF9201
:10271000FF920F931F93DC01ED91FC9100A0F1A1BA
:10272000E02D09951F910F91FF90EF9008950F9361
:102730001F93DC01ED91FC91068CF78DE02D09953E
:102740001F910F9108950F931F93DC01ED91FC9160
:10275000048CF58DE02D09951F910F910895DC01F2
:10276000ED91FC910084F185E02D09943F924F9208
:102770005F926F927F928F929F92AF92BF92CF9211
:10278000DF92EF92FF920F931F93CF93DF935C0141
:102790007B014A016901390187E0680E711C93E0F1
:1027A000759467949A95E1F72B01400E511E10E045
:1027B00000E0312CD0E0C0E0CE0187709927330CC7
:1027C000892B59F4FE0183E0F595E7958A95E1F7A9
:1027D000E00FF11FE80DF91D349037FE0AC021E02B
:1027E00030E0A701B5016C0F7D1F8FED92E00E94D4
:1027F000AF132196CC16DD06F9F68FEFE81AF80A2A
:10280000060D171DE414F504A9F6DF91CF911F9171
:102810000F91FF90EF90DF90CF90BF90AF909F907F
:102820008F907F906F905F904F903F9008952F9280
:102830003F924F925F926F927F928F929F92AF9250
:10284000BF92CF92DF92EF92FF920F931F93CF939D
:10285000DF9300D000D000D0CDB7DEB73C016A01D5
:102860003E832D83FC82EB825801A41AB50AB7FE81
:1028700003C0B194A194B1088D809E80861A970AF6
:1028800097FE03C09194819491088A149B045CF094
:10289000902F812F0D811E819D838E839C2D8D2DE8
:1028A0006B01692F782F0C151D055CF09D818E81C1
:1028B0007E836D83692F782F902F812F8601C92EFB
:1028C000D82E1601201A310A2B012D813E81421A81
:1028D000530A57FE03C0519441945108710137FEC9
:1028E00003C03FEFE31AF30AF594E7948D819E81CC
:1028F000861797075CF5A1E0B0E0BA83A983C016FC
:10290000D1064CF1D301ED91FC910484F585E02DC5
:102910002B813C81A8016D817E818A149B041CF06F
:102920004D815E81B801C3010995E418F508F7FEF1
:102930000AC02D813E8189819A81280F391F3E83EB
:102940002D83E20CF31C0F5F1F4FD9CF2FEF3FEF0A
:102950003A832983D4CF26960FB6F894DEBF0FBEF4
:10296000CDBFDF91CF911F910F91FF90EF90DF903E
:10297000CF90BF90AF909F908F907F906F905F901F
:102980004F903F902F90089508952091D001260FE9
:102990003327331F21323105ECF42091F401FC017F
:1029A00090E080E0243069F082E00895A091D001A9
:1029B0002191AC0140555E4FA40FB52FB11D2C9352
:1029C0000196861798F38091D001680F6093D0012B
:1029D00080E0089581E008951092F40181E08093F1
:1029E000F6011092F50161E082E10E94BC0A61E00B
:1029F00083E10E94BC0AE9EBF0E080818E7F808356
:102A000080818D7F808388E48093B80085E4809303
:102A1000BC000895CF93DF9391E09093AF0188239A
:102A2000B9F0C091B800D091BA008091BC008A7B07
:102A30008093BC0060E082E10E94BC0A60E083E118
:102A40000E94BC0A0E94EC14D093BA00C093B80054
:102A5000DF91CF910895E091200280911F02E81745
:102A600030F4F0E0E657FE4F808190E008958FEF5C
:102A70009FEF08959091200280911F022FEF3FEF6A
:102A8000981748F4E92FF0E0E657FE4F208130E038
:102A90009F5F90932002C901089580911F02909139
:102AA0002002891B990B0895CF92DF92EF92FF923B
:102AB0000F931F93CF93DF937C01CB018A01209169
:102AC0003502222389F0EB016B01C40ED51ECC1513
:102AD000DD0569F06991D701ED91FC910190F081DC
:102AE000E02DC7010995F3CF642F0E94C514C801DA
:102AF000DF91CF911F910F91FF90EF90DF90CF90DA
:102B00000895CF93DF931F92CDB7DEB769832091ED
:102B100035022223F9F020913202203258F021E0D0
:102B200030E0FC013383228390E080E00F90DF915E
:102B3000CF91089580913302E82FF0E0E659FE4FDF
:102B4000998190838F5F809333028093320281E07A
:102B500090E0ECCF61E0CE0101960E94C514F7CF62
:102B6000CF92DF92EF92FF920F931F93CF93DF9359
:102B7000D091320281E0D13208F09CC0C091340281
:102B80000E94080B6B017C018091F40181116CC0E3
:102B900082E08093F40181E08093F6018FEF8093CF
:102BA000F30110921802D0931702AAE6B1E0E7EF02
:102BB000F1E080E0D8138DC01092190280911902C3
:102BC000CC0FC82BC09319028091F501813009F018
:102BD00084C01092F5010E94080B6B017C0180916A
:102BE00019028093BB008091AB019091AC01A09140
:102BF000AD01B091AE01892B8A2B8B2BA1F00E94E5
:102C0000080B0091AB011091AC012091AD01309106
:102C1000AE016C197D098E099F0906171707280751
:102C2000390708F442C08091BC0083FDD8CF85EC01
:102C30008093BC000E94080B6B017C018091F40121
:102C4000823009F44CC08091F3018F3F09F469C0D0
:102C50008091F301803209F466C08091F3018033E2
:102C600009F463C084E026C08091AB019091AC016F
:102C7000A091AD01B091AE01892B8A2B8B2B09F469
:102C800083CF0E94080B0091AB011091AC01209101
:102C9000AD013091AE016C197D098E099F090617AF
:102CA00017072807390708F06FCF8091AA010E9403
:102CB0000A1585E01092330210923202109235020A
:102CC000DF91CF911F910F91FF90EF90DF90CF9008
:102CD00008959D9191938F5F6DCF85EEA9CF8091DF
:102CE000AB019091AC01A091AD01B091AE01892BE7
:102CF0008A2B8B2B09F4A2CF0E94080B0091AB0109
:102D00001091AC012091AD013091AE016C197D099B
:102D10008E099F09061717072807390708F08ECF75
:102D2000C4CF80E0C7CF82E0C5CF83E0C3CFEF92AE
:102D3000FF920F931F93CF93DF937C01C62F809157
:102D4000FC029091FD02009709F459C02091000304
:102D500031E0309335022093340210923302109206
:102D60003202DC01ED91FC910190F081E02D60E0F8
:102D700009958701EE24E394F12CD1E0C1508091B4
:102D8000FC029091FD02CF3F91F1B0E2EB16F1040D
:102D9000D8F00E94B0158091FC029091FD02209124
:102DA0000003D09335022093340210923302109224
:102DB0003202DC01ED91FC910190F081E02D60E0A8
:102DC0000995EE24E394F12C8091FC029091FD0290
:102DD000F8016491DC01ED91FC910190F081E02D0E
:102DE0000995BFEFEB1AFB0A0F5F1F4FC7CFDF91AB
:102DF000CF911F910F91FF90EF900C94B015E0913F
:102E00000C03F0910D03908180911203809589232A
:102E100080838701C15008F438C0F8018491209163
:102E2000FA023091FB02232B29F00E94C50E0F5F9E
:102E30001F4FF0CF28E030E040E8E0910803F09128
:102E4000090390911003582F5423D9F05081952BEA
:102E50009083E0910A03F0910B039081509111034C
:102E6000952B9083E0910A03F0910B035081909190
:102E70001103909595239083469521503109E9F6E9
:102E8000D6CF508190959523E3CFDF91CF911F91BD
:102E90000F91FF90EF9008951F93CF93DF93EC0174
:102EA0008D8D9E8D009721F1162F29A131E0309351
:102EB0003502209334021092330210923202DC0168
:102EC000ED91FC910190F081E02D60E009958D8DF0
:102ED0009E8DDC01ED91FC910190F081E02D612F40
:102EE00009958D8D9E8DDF91CF911F910C94B0151A
:102EF000ADA5BEA59C918BA9809589238C938B8DC4
:102F00009C8D892B31F0862FDF91CF911F910C94EE
:102F1000C50E28E030E080E8A9A5BAA599A9462FFA
:102F20004823C1F04C91942B9C93ABA5BCA59C91DC
:102F30004AA9942B9C93ABA5BCA54C919AA99095BA
:102F400094239C9386952150310931F7DF91CF91DD
:102F50001F9108954C9190959423E6CFDF92EF92C4
:102F6000FF920F931F93CF93DF938091FC02909178
:102F7000FD02892B09F4A5C020911403309115039B
:102F8000409116035091170360E074E284EF90E0E3
:102F90000E947E1F205131094109510956954795DC
:102FA000379527952093B80064E087E092E10E946E
:102FB00097168091E3029091E4028034910509F024
:102FC00097C060E28FED92E00E944C176091E3029F
:102FD000615E8FED92E00E944C172091E5023091E6
:102FE000E602C901079697FD079633E09595879508
:102FF0003A95E1F72091E3023091E402829F80014B
:10300000839F100D929F100D1124C091FE02D0914C
:10301000FF028091FC029091FD020C0F1D1F009792
:1030200009F498C02091000331E0309335022093D9
:1030300034021092330210923202DC01ED91FC91C5
:103040000190F081E02D60E40995EE24E394F12CE9
:10305000DD24D3948091FC029091FD020C171D0792
:1030600009F44FC0B0E2EB16F104D8F00E94B0159D
:103070008091FC029091FD0220910003D0923502D4
:10308000209334021092330210923202DC01ED914F
:10309000FC910190F081E02D60E40995EE24E39429
:1030A000F12C8091FC029091FD026991DC01ED917F
:1030B000FC910190F081E02D0995BFEFEB1AFB0A1E
:1030C000C9CF8091FA029091FB02892B31F0809157
:1030D0001D0390911E030E94CC0EE0910E03F0910F
:1030E0000F039081809113038095892380835CCFA7
:1030F00060E08FED92E00E944C176091E302615016
:1031000068CF0E94B0158091FC029091FD02892B3E
:1031100009F461C0209118033091190340911A03FA
:1031200050911B0360E074E284EF90E00E947E1FE8
:1031300020513109410951095695479537952795F1
:103140002093B800DF91CF911F910F91FF90EF90E6
:10315000DF900895E0910C03F0910D038081909130
:103160001203892B80830C171D0769F28991209126
:10317000FA023091FB02232B19F00E94C50EF3CF07
:1031800028E030E040E8E0910803F09109039091D5
:103190001003582F5423D9F05081952B9083E09140
:1031A0000A03F0910B03908150911103952B9083AA
:1031B000E0910A03F0910B035081909111039095D7
:1031C00095239083469521503109E9F6CCCF508163
:1031D00090959523E3CFE0910E03F0910F0380814A
:1031E00090911303892B8083ADCF1F93CF93DF93EF
:1031F000EC01162F8D8D9E8D892BB1F12DA93EA945
:103200004FA958AD60E074E284EF90E00E947E1F09
:103210002051310941095109569547953795279510
:103220002093B80066EA111167EACE010E944C179C
:103230008D8D9E8D892B41F129AD3AAD4BAD5CADA5
:1032400060E074E284EF90E00E947E1F205131091B
:103250004109510956954795379527952093B80010
:10326000DF91CF911F9108958B8D9C8D892B21F03B
:103270008EAD9FAD0E94CC0EEFA5F8A990818CA9D0
:10328000809589238083CECFEFA5F8A980819CA962
:10329000892B8083E5CF90E080E008952091E502BE
:1032A0003091E602C901079697FD079623E09595B0
:1032B00087952A95E1F72091E3023091E402829FFD
:1032C000A001839F500D929F500D112470E060E08B
:1032D0008091FE029091FF020C94D0200E94CB209E
:1032E000FB0101900020E9F73197AF01461B570B16
:1032F000DC01ED91FC910280F381E02D099485EDD4
:103300008093BC008091AB019091AC01A091AD0184
:10331000B091AE010796A11DB11D23E0B695A7950A
:10332000979587952A95D1F72091BC0024FD03C07D
:103330001092F40108954091AB015091AC0160915D
:10334000AD017091AE01452B462B472B69F30097D9
:10335000A105B10541F02AE22A95F1F700C00197D5
:10336000A109B109E1CF8091AA010C940A151F921D
:103370000F920FB60F9211242F933F938F939F9329
:10338000AF93BF938091220290912302A0912402D7
:10339000B09125023091210223E0230F2D3758F5FB
:1033A0000196A11DB11D20932102809322029093CA
:1033B0002302A0932402B0932502809126029091CB
:1033C0002702A0912802B09129020196A11DB11DEA
:1033D0008093260290932702A0932802B09329029B
:1033E000BF91AF919F918F913F912F910F900FBE01
:1033F0000F901F90189526E8230F0296A11DB11D6E
:10340000D2CF1F920F920FB60F9211242F933F939A
:103410004F935F936F937F938F939F93AF93BF93DC
:10342000EF93FF9386E392E00E94DF0BFF91EF9111
:10343000BF91AF919F918F917F916F915F914F91CC
:103440003F912F910F900FBE0F901F9018951F92D4
:103450000F920FB60F9211242F938F939F93EF9398
:10346000FF93E0914602F09147028081E0914C0287
:10347000F0914D0282FD1BC0908180914F028F5FC1
:103480008F7320915002821741F0E0914F02F0E0DB
:10349000EA5CFD4F958F80934F02FF91EF919F91D2
:1034A0008F912F910F900FBE0F901F9018958081D4
:1034B000F4CF1F920F920FB60F9211242F933F93C8
:1034C0004F935F936F937F938F939F93AF93BF932C
:1034D000EF93FF938091B900887F803609F44AC04A
:1034E000F0F5883209F4A7C018F5803109F49BC0C3
:1034F000B8F4882309F4F9C0883009F494C0FF9126
:10350000EF91BF91AF919F918F917F916F915F915B
:103510004F913F912F910F900FBE0F901F901895D4
:10352000883109F488C0803251F78093F30114C0C8
:10353000803409F49DC040F48033B9F38833F9F640
:103540008093F30185ECB0C0803509F485C08835DF
:1035500009F496C0883499F60E947F19D0CF883933
:1035600009F48CC038F5883729F050F4883611F00A
:10357000803729F683E08093F4011092F20157C05E
:10358000883809F47BC0803919F0803809F0B7CF4A
:103590008091F201803208F071C0E091F20181E087
:1035A0008E0F8093F2018091BB00F0E0EE52FE4F4F
:1035B00080833DC0803B39F0E0F4803A09F479C063
:1035C000883A09F09CCF84E08093F4011092D101F5
:1035D0001092D001E0911D02F0911E020995809198
:1035E000D00181110FC081E08093D0011092B00111
:1035F00009C0803C09F4A6CF883C09F4A3CF883BDE
:1036000009F07DCFE091D10181E08E0F8093D1014F
:10361000F0E0E055FE4F80818093BB009091D10196
:103620008091D00129C0809119028093BB0085EC64
:103630008093BC0064CF9091180280911702981774
:1036400058F5E091180281E08E0F80931802F0E0A7
:10365000E950FE4F8081E9CFE091180281E08E0FA2
:10366000809318028091BB00F0E0E950FE4F808308
:1036700090911802809117029817C8F285E8D8CF68
:10368000E091180281E08E0F809318028091BB00B8
:10369000F0E0E950FE4F80838091F60181115CCF0C
:1036A00081E08093F50184EA8093BC001092F401DC
:1036B00026CF85EC8093BC001092F4018091F2013A
:1036C000803230F4E091F201F0E0EE52FE4F1082D1
:1036D0006091F20170E0E0911B02F0911C0282ED1A
:1036E00091E009951092F2010ACF1092F30134CFC4
:1036F000E6E3F2E01382128248EE53E060E070E00D
:1037000044835583668377838AE091E09183808345
:1037100085EC90E09587848784EC90E09787868796
:1037200080EC90E0918B808B81EC90E0938B828B8E
:1037300082EC90E0958B848B86EC90E0978B868B67
:10374000118E128E138E148EA3EDB2E013961C927E
:103750001E92129714964D935D936D937C931797D9
:103760008CE191E011969C938E93EFEDF2E0138241
:10377000128220E830E03583248380E490E0978350
:1037800086833187208793878287168A15861486D9
:103790001786168681E0858B848B2FEF3FEF338B66
:1037A000228B318B208B878B108E128E118E8EE2A6
:1037B00091E091838083148E138EB68FA58F10A213
:1037C000178E8FEF84A385A386A387A380A780E8A5
:1037D0009AE1A6E0B0E085AB96ABA7ABB0AF80EACC
:1037E00096E8A1E0B0E081AF92AFA3AFB4AF80E5BF
:1037F00086AF17AE0895789484B5826084BD84B591
:10380000816084BD85B5826085BD85B5816085BDDB
:1038100080916E00816080936E0010928100809193
:10382000810082608093810080918100816080931B
:103830008100809180008160809380008091B10040
:1038400084608093B1008091B00081608093B0006B
:1038500080917A00846080937A0080917A008260FF
:1038600080937A0080917A00816080937A008091C1
:103870007A00806880937A001092C100E09146023D
:10388000F091470282E08083E0914202F09143028E
:103890001082E0914402F09145028FEC80831092F7
:1038A0004E02E0914A02F0914B0286E08083E09163
:1038B0004802F0914902808180618083E091480252
:1038C000F0914902808188608083E0914802F09104
:1038D0004902808180688083E0914802F09149022A
:1038E00080818F7D808364EF71E080E090E00E94B2
:1038F0002D0B8091FE029091FF02892B11F10E9405
:103900004E192091E5023091E6028091E3029091F8
:10391000E402213231050CF04AC0B901605271094C
:1039200077FF02C06F5F7F4F759567958357910949
:1039300097FD019600E210E023E730E041EF5CE004
:1039400049C02091E5023091E602C901079697FD32
:103950000796B3E095958795BA95E1F72091E30234
:103960003091E402AC01429FC001439F900D529FF1
:10397000900D11240E94A61F9093FF028093FE02D7
:10398000892B09F0BCCFCAE9D1E1FE01649166231D
:1039900039F086E392E00E94010C2196892BA9F769
:1039A00066E571E086E392E00E947019FFCFB901ED
:1039B0006054710977FF02C06F5F7F4F75956795FF
:1039C0008255910997FD019600E410E022E530E070
:1039D00041ED5EE0959587950E94B61382E0809355
:1039E00001038091FC029091FD02892B09F493C0A0
:1039F0008CE3809300031092200210921F02109219
:103A00003302109232020E94EC148FE59BE09093F7
:103A10001E0280931D0280E69BE090931C0280931F
:103A20001B028091070387FD1DC00E949C0A61E074
:103A3000809107030E94BC0A61E070E080E090E0A2
:103A40000E942D0B60E0809107030E94BC0A6AE08F
:103A500070E080E090E00E942D0B61E08091070310
:103A60000E94BC0A8091FC029091FD02892B09F40E
:103A700009C1209114033091150340911603509110
:103A8000170360E074E284EF90E00E947E1F2051F3
:103A90003109410951095695479537952795209346
:103AA000B80064E08DEE9CE00E9497166091E502FC
:103AB00061508FED92E00E944C1764E089EE9CE02B
:103AC0000E9497168091010364E1813009F460E15E
:103AD0008FED92E00E944C1764E085EE9CE00E941E
:103AE00097168FE880931C038091E3029091E40283
:103AF0008038910509F0C5C18091E5029091E602F8
:103B00008034910509F0CDC180910103813009F421
:103B1000D0C08FECCFC0809105030E949C0A809199
:103B200006030E949C0A80910503082E000C990B45
:103B3000FC01E152FE4EE491F0E0EE0FFF1FE55371
:103B4000FE4E2591349130930D0320930C03FC011C
:103B5000ED50FE4EE491E093120380910603082E8F
:103B6000000C990BFC01E152FE4EE491F0E0EE0FE7
:103B7000FF1FE553FE4EA591B491B0930F03A093A0
:103B80000E03FC01ED50FE4EE491E09313038C9183
:103B9000E82BEC938091FA029091FB02892B89F13A
:103BA000CFB7F89480911A02811124C0E9EEF1E1B7
:103BB0008491EDEFF1E19491E82FF0E0EE0FFF1F1B
:103BC000EB52FE4EA591B491EC91E92321F461E012
:103BD0008AE00E94BC0A8AE00E949C0A8CB580613F
:103BE0008CBD8CB580648CBD8DE00E949C0A8BE0FE
:103BF0000E949C0A80911A028F5F80931A02CFBFA5
:103C000010CF809103030E949C0A809104030E94BC
:103C10009C0A80910303082E000C990BFC01E152D1
:103C2000FE4EE491F0E0EE0FFF1FE553FE4E2591AE
:103C300034913093090320930803FC01ED50FE4EAC
:103C4000E491E093100380910403082E000C990B7B
:103C5000FC01E152FE4EE491F0E0EE0FFF1FE55350
:103C6000FE4EA591B491B0930B03A0930A03FC01FF
:103C7000ED50FE4EE491E09311038C91E095E82322
:103C8000EC93CFCE8091FA029091FB02892B31F018
:103C900080911D0390911E030E94CC0EE0910E03B3
:103CA000F0910F0390818091130380958923808385
:103CB000F8CE8FE980931C03C2E16AED8FED92E0AC
:103CC0000E944C176C2F8FED92E00E944C1761E818
:103CD0008FED92E00E944C1760911C038FED92E0F3
:103CE0000E944C1769ED8FED92E00E944C17809175
:103CF000010361EF813009F462E28FED92E00E94EE
:103D00004C1766E08FED9CE00E9497168091FC02B4
:103D10009091FD02892B09F4D8C0209118033091AD
:103D2000190340911A0350911B0360E074E284EF81
:103D300090E00E947E1F205131094109510956959A
:103D40004795379527952093B8000E94AE1760EDF0
:103D500077E080E090E00E942D0B0E944E1981E0F8
:103D60008093F3028093F40281E090E09093F2025A
:103D70008093F1029093F0028093EF0289E591E045
:103D80000E94320920912C0230912D0280E890E0AF
:103D9000821B930B9695879599279093EC028093BD
:103DA000EB028AE090E09093EE028093ED0269E5E9
:103DB00071E08FED92E00E94701966E571E08FED81
:103DC00092E00E9470190E94AE1764EF71E080E0EB
:103DD00090E00E942D0B8091F8029091F902892BBE
:103DE00049F48091ED029091EE0206969093EE02D6
:103DF0008093ED0281E991E19093F9028093F802BA
:103E000081E08093F3028093F4028FE591E00E94B9
:103E1000320920912A0230912B0280E490E0821B2B
:103E2000930B9695879599270F9640912C02509168
:103E30002D0220E830E0241B350B369527953327DB
:103E40003093EC022093EB029093EE028093ED020C
:103E50006FE571E08FED92E00E94701966E571E008
:103E60008FED92E00E9470190E94AE17C0E0D0E082
:103E70002097F1F30E94CB0B8823D1F30E9400001E
:103E8000F7CF8036910589F48091E5029091E602A2
:103E9000409739F480910103813029F08FEA8093B3
:103EA0001C03C2E00ACF80E1FACF80349105C9F744
:103EB0008091E5029091E602809799F78091010345
:103EC000813009F026CE80E1F5CEE0910E03F0912D
:103ED0000F03808190911303892B808336CF8EE26C
:103EE00091E09093E0028093DF028091FE02909136
:103EF000FF02009711F00C9442200895A1E21A2EBF
:103F0000AA1BBB1BFD010DC0AA1FBB1FEE1FFF1F7D
:103F1000A217B307E407F50720F0A21BB30BE40BCD
:103F2000F50B661F771F881F991F1A9469F7609514
:103F30007095809590959B01AC01BD01CF010895CE
:103F4000EE0FFF1F0590F491E02D09940F931F933E
:103F5000CF93DF938230910510F482E090E0E091FE
:103F60002103F091220330E020E0B0E0A0E03097A0
:103F700099F42115310509F44AC0281B390B243066
:103F80003105D8F58A819B816115710589F1FB01A5
:103F900093838283FE0111C040815181028113818C
:103FA00048175907E0F04817590799F4109761F03E
:103FB00012960C93129713961C933296CF01DF91B1
:103FC000CF911F910F910895009321031093220325
:103FD000F4CF2115310551F04217530738F0A901EC
:103FE000DB019A01BD01DF01F801C1CFEF01F9CF7B
:103FF0009093220380932103CDCFFE01E20FF31FA4
:10400000819391932250310939832883D7CF20910E
:104010001F0330912003232B41F4209102013091A2
:1040200003013093200320931F032091000130915E
:1040300001012115310541F42DB73EB7409104012E
:1040400050910501241B350BE0911F03F0912003D3
:10405000E217F307A0F42E1B3F0B2817390778F05F
:10406000AC014E5F5F4F2417350748F04E0F5F1FBE
:104070005093200340931F03819391939FCFF0E0CF
:10408000E0E09CCFCF93DF930097E9F0FC013297FB
:1040900013821282A0912103B0912203ED0130E03E
:1040A00020E01097A1F420813181820F931F20918D
:1040B0001F03309120032817390709F061C0F093DE
:1040C0002003E0931F03DF91CF910895EA01CE17FB
:1040D000DF07E8F54A815B819E0141155105B1F783
:1040E000E901FB83EA8349915991C40FD51FEC176D
:1040F000FD0761F4808191810296840F951FE9018B
:1041000099838883828193819B838A83F0E0E0E0B6
:1041100012968D919C9113970097B9F52D913C9132
:104120001197CD010296820F931F20911F033091AA
:1041300020032817390739F6309751F510922203DA
:1041400010922103B0932003A0931F03BCCFD3830D
:10415000C28340815181840F951FC817D90761F42C
:104160004E5F5F4F88819981480F591F518340836B
:104170008A819B81938382832115310509F0B0CF19
:10418000F0932203E09321039ECFFD01DC01C0CF19
:1041900013821282D7CF81E090E0F8940C94D7205C
:1041A000DC0101C06D9341505040E0F7089519E0E3
:1041B000C7E0D9E004C0FE010E94A01F2196C830CC
:0841C000D107C9F7F894FFCF05
:1041C80000002303800000000000010C610B8E0B2F
:1041D8004E0CBF0B9D0BB10B000000008115541550
:1041E8004B19BB0A4D153A152B15000000000A1192
:1041F800610B4B19C414150EBB0AAF138713A31315
:1042080097131714BB0AD00EF518850DCE0DD012D2
:10421800B3123B12DC110D0A0048454C4C4F004DBF
:0A4228005943524F4D41525300001C
:00000001FF
